{
  "contractName": "AnimalPoll",
  "abi": [
    {
      "constant": true,
      "inputs": [
        {
          "name": "",
          "type": "uint256"
        }
      ],
      "name": "animals",
      "outputs": [
        {
          "name": "id",
          "type": "uint256"
        },
        {
          "name": "voteCount",
          "type": "uint256"
        },
        {
          "name": "name",
          "type": "string"
        }
      ],
      "payable": false,
      "stateMutability": "view",
      "type": "function"
    },
    {
      "constant": true,
      "inputs": [],
      "name": "animalsCount",
      "outputs": [
        {
          "name": "",
          "type": "uint256"
        }
      ],
      "payable": false,
      "stateMutability": "view",
      "type": "function"
    },
    {
      "constant": true,
      "inputs": [
        {
          "name": "",
          "type": "uint256"
        }
      ],
      "name": "voters",
      "outputs": [
        {
          "name": "",
          "type": "address"
        }
      ],
      "payable": false,
      "stateMutability": "view",
      "type": "function"
    },
    {
      "inputs": [],
      "payable": false,
      "stateMutability": "nonpayable",
      "type": "constructor"
    },
    {
      "anonymous": false,
      "inputs": [
        {
          "indexed": false,
          "name": "_animalId",
          "type": "uint256"
        }
      ],
      "name": "VotedOnAnimal",
      "type": "event"
    },
    {
      "constant": false,
      "inputs": [
        {
          "name": "_animalId",
          "type": "uint256"
        }
      ],
      "name": "vote",
      "outputs": [],
      "payable": false,
      "stateMutability": "nonpayable",
      "type": "function"
    }
  ],
  "bytecode": "0x608060405234801561001057600080fd5b5061005e6040805190810160405280600381526020017f446f6700000000000000000000000000000000000000000000000000000000008152506100b0640100000000026401000000009004565b6100ab6040805190810160405280600381526020017f43617400000000000000000000000000000000000000000000000000000000008152506100b0640100000000026401000000009004565b6101d0565b60008081548092919060010191905055506060604051908101604052806000548152602001600081526020018281525060026000805481526020019081526020016000206000820151816000015560208201518160010155604082015181600201908051906020019061012492919061012b565b5090505050565b828054600181600116156101000203166002900490600052602060002090601f016020900481019282601f1061016c57805160ff191683800117855561019a565b8280016001018555821561019a579182015b8281111561019957825182559160200191906001019061017e565b5b5090506101a791906101ab565b5090565b6101cd91905b808211156101c95760008160009055506001016101b1565b5090565b90565b6105cb806101df6000396000f300608060405260043610610062576000357c0100000000000000000000000000000000000000000000000000000000900463ffffffff1680630121b93f14610067578063998dd3ca14610094578063c539c44314610148578063da58c7d914610173575b600080fd5b34801561007357600080fd5b50610092600480360381019080803590602001909291905050506101e0565b005b3480156100a057600080fd5b506100bf600480360381019080803590602001909291905050506103f6565b6040518084815260200183815260200180602001828103825283818151815260200191508051906020019080838360005b8381101561010b5780820151818401526020810190506100f0565b50505050905090810190601f1680156101385780820380516001836020036101000a031916815260200191505b5094505050505060405180910390f35b34801561015457600080fd5b5061015d6104b8565b6040518082815260200191505060405180910390f35b34801561017f57600080fd5b5061019e600480360381019080803590602001909291905050506104be565b604051808273ffffffffffffffffffffffffffffffffffffffff1673ffffffffffffffffffffffffffffffffffffffff16815260200191505060405180910390f35b6101e9336104fc565b151515610284576040517f08c379a00000000000000000000000000000000000000000000000000000000081526004018080602001828103825260238152602001807f596f7527766520616c726561647920766f74656420666f7220616e20616e696d81526020017f616c2e000000000000000000000000000000000000000000000000000000000081525060400191505060405180910390fd5b60008111801561029657506000548111155b1515610330576040517f08c379a00000000000000000000000000000000000000000000000000000000081526004018080602001828103825260218152602001807f596f75206d75737420766f746520666f7220612076616c696420616e696d616c81526020017f2e0000000000000000000000000000000000000000000000000000000000000081525060400191505060405180910390fd5b60013390806001815401808255809150509060018203906000526020600020016000909192909190916101000a81548173ffffffffffffffffffffffffffffffffffffffff021916908373ffffffffffffffffffffffffffffffffffffffff1602179055505060026000828152602001908152602001600020600101600081548092919060010191905055507fe683e79ac7c18d8cd1510a5410035d5eeaee6f1adea31aa289f2e6a32abf81f0816040518082815260200191505060405180910390a150565b6002602052806000526040600020600091509050806000015490806001015490806002018054600181600116156101000203166002900480601f0160208091040260200160405190810160405280929190818152602001828054600181600116156101000203166002900480156104ae5780601f10610483576101008083540402835291602001916104ae565b820191906000526020600020905b81548152906001019060200180831161049157829003601f168201915b5050505050905083565b60005481565b6001818154811015156104cd57fe5b906000526020600020016000915054906101000a900473ffffffffffffffffffffffffffffffffffffffff1681565b600080600090505b600180549050811015610594578273ffffffffffffffffffffffffffffffffffffffff1660018281548110151561053757fe5b9060005260206000200160009054906101000a900473ffffffffffffffffffffffffffffffffffffffff1673ffffffffffffffffffffffffffffffffffffffff1614156105875760019150610599565b8080600101915050610504565b600091505b509190505600a165627a7a72305820f9abe800223d7d0389e100e84a742c7ff6f68e5cdb6e1ef10085477adf9067cb0029",
  "source": "pragma solidity ^0.4.24;\n\n/// @title Animal Poll\n/// @author Becca Kostyo\n/// @notice Simple contract that allows users to vote on their preferred animal from a dropdown list\ncontract AnimalPoll {\n\n    uint public animalsCount;\n    address[] public voters;\n    mapping(uint => Animal) public animals;\n    \n    // Model for each animal\n    struct Animal {\n        uint id;\n        uint voteCount;\n        string name;\n    }\n\n    /// @notice This will prepoulate some animals to assist with ease of use and testing.\n    constructor () public {\n        _addAnimal(\"Dog\");\n        _addAnimal(\"Cat\");\n    }\n\n    /// @notice Notify when a user has voted on an animal\n    event VotedOnAnimal(uint _animalId);\n    \n    /// @notice Create a new animal\n    /// @param _name The new animal's name\n    function _addAnimal(string _name) private {\n        animalsCount++;\n        animals[animalsCount] = Animal(animalsCount, 0, _name);\n    }\n\n    /** @notice Function:\n                1) Validates that user has not already voted \n                2) Validates that animal being voted for is valid\n                3) Push current voter address into voters array to record that they have voted\n                4) Update animal's vote count\n                5) Fire off VotedOnAnimal event\n    **/\n    /// @param _animalId The animal being voted for\n    function vote(uint _animalId) public {\n        require(!alreadyVoted(msg.sender), \"You've already voted for an animal.\");\n        require(_animalId > 0 && _animalId <= animalsCount, \"You must vote for a valid animal.\");\n\n        voters.push(msg.sender);\n        animals[_animalId].voteCount++;\n        emit VotedOnAnimal(_animalId);\n    }\n\n    /// @notice Checks if voter has already voted;\n    /// @param voter The address of the voter we are checking\n    /// @return bool True if voter has already voted from current count and false if they haven't\n    function alreadyVoted(address voter) internal view returns(bool) {\n        for (uint i = 0; i < voters.length; i++) {\n            if (voters[i] == voter) return true;\n        }\n        return false;\n    }\n}",
  "sourcePath": "/Users/beccakostyo/Desktop/consensys/consensys-project/contracts/AnimalPoll.sol",
  "compiler": {
    "name": "solc",
    "version": "0.4.24+commit.e67f0147.Emscripten.clang"
  },
  "schemaVersion": "2.0.1",
  "updatedAt": "2018-08-22T03:05:17.604Z"
}