{
  "contractName": "AnimalPoll",
  "abi": [
    {
      "constant": true,
      "inputs": [
        {
          "name": "",
          "type": "uint256"
        }
      ],
      "name": "animals",
      "outputs": [
        {
          "name": "id",
          "type": "uint256"
        },
        {
          "name": "voteCount",
          "type": "uint256"
        },
        {
          "name": "name",
          "type": "string"
        }
      ],
      "payable": false,
      "stateMutability": "view",
      "type": "function"
    },
    {
      "constant": true,
      "inputs": [],
      "name": "animalsCount",
      "outputs": [
        {
          "name": "",
          "type": "uint256"
        }
      ],
      "payable": false,
      "stateMutability": "view",
      "type": "function"
    },
    {
      "inputs": [],
      "payable": false,
      "stateMutability": "nonpayable",
      "type": "constructor"
    }
  ],
  "bytecode": "0x608060405234801561001057600080fd5b5061005e6040805190810160405280600381526020017f446f6700000000000000000000000000000000000000000000000000000000008152506100b0640100000000026401000000009004565b6100ab6040805190810160405280600381526020017f43617400000000000000000000000000000000000000000000000000000000008152506100b0640100000000026401000000009004565b6101d0565b60008081548092919060010191905055506060604051908101604052806000548152602001600081526020018281525060016000805481526020019081526020016000206000820151816000015560208201518160010155604082015181600201908051906020019061012492919061012b565b5090505050565b828054600181600116156101000203166002900490600052602060002090601f016020900481019282601f1061016c57805160ff191683800117855561019a565b8280016001018555821561019a579182015b8281111561019957825182559160200191906001019061017e565b5b5090506101a791906101ab565b5090565b6101cd91905b808211156101c95760008160009055506001016101b1565b5090565b90565b610224806101df6000396000f30060806040526004361061004c576000357c0100000000000000000000000000000000000000000000000000000000900463ffffffff168063998dd3ca14610051578063c539c44314610105575b600080fd5b34801561005d57600080fd5b5061007c60048036038101908080359060200190929190505050610130565b6040518084815260200183815260200180602001828103825283818151815260200191508051906020019080838360005b838110156100c85780820151818401526020810190506100ad565b50505050905090810190601f1680156100f55780820380516001836020036101000a031916815260200191505b5094505050505060405180910390f35b34801561011157600080fd5b5061011a6101f2565b6040518082815260200191505060405180910390f35b6001602052806000526040600020600091509050806000015490806001015490806002018054600181600116156101000203166002900480601f0160208091040260200160405190810160405280929190818152602001828054600181600116156101000203166002900480156101e85780601f106101bd576101008083540402835291602001916101e8565b820191906000526020600020905b8154815290600101906020018083116101cb57829003601f168201915b5050505050905083565b600054815600a165627a7a723058205fe59f081fcd8a28a0e19375d00c1f451fd006659e734464bdbba5a8eb4d748b0029",
  "source": "pragma solidity ^0.4.24;\n\n/// @title Animal Poll\n/// @author Becca Kostyo\n/// @notice Simple contract that allows users to vote on their preferred animal from a dropdown list\ncontract AnimalPoll {\n\n    uint public animalsCount;\n\n    mapping(uint => Animal) public animals;\n\n    // Model for each animal\n    struct Animal {\n        uint id;\n        uint voteCount;\n        string name;\n    }\n\n    /// @notice This will prepoulate some animals to assist with ease of use and testing.\n    constructor () public {\n        _addAnimal(\"Dog\");\n        _addAnimal(\"Cat\");\n    }\n    \n    /// @notice Create a new animal\n    /// @param _name The new animal's name\n    function _addAnimal(string _name) private {\n        animalsCount++;\n        animals[animalsCount] = Animal(animalsCount, 0, _name);\n    }\n}",
  "sourcePath": "/Users/beccakostyo/Desktop/consensys/consensys-project/contracts/AnimalPoll.sol",
  "compiler": {
    "name": "solc",
    "version": "0.4.24+commit.e67f0147.Emscripten.clang"
  },
  "schemaVersion": "2.0.1",
  "updatedAt": "2018-08-22T02:19:08.875Z"
}