{
  "contractName": "PetPoll",
  "abi": [
    {
      "constant": true,
      "inputs": [
        {
          "name": "",
          "type": "uint256"
        }
      ],
      "name": "animals",
      "outputs": [
        {
          "name": "id",
          "type": "uint256"
        },
        {
          "name": "name",
          "type": "string"
        },
        {
          "name": "voteCount",
          "type": "uint256"
        }
      ],
      "payable": false,
      "stateMutability": "view",
      "type": "function"
    },
    {
      "constant": true,
      "inputs": [
        {
          "name": "",
          "type": "address"
        }
      ],
      "name": "voters",
      "outputs": [
        {
          "name": "",
          "type": "bool"
        }
      ],
      "payable": false,
      "stateMutability": "view",
      "type": "function"
    },
    {
      "constant": true,
      "inputs": [],
      "name": "animalsCount",
      "outputs": [
        {
          "name": "",
          "type": "uint256"
        }
      ],
      "payable": false,
      "stateMutability": "view",
      "type": "function"
    },
    {
      "inputs": [],
      "payable": false,
      "stateMutability": "nonpayable",
      "type": "constructor"
    },
    {
      "anonymous": false,
      "inputs": [
        {
          "indexed": true,
          "name": "_animalId",
          "type": "uint256"
        }
      ],
      "name": "votedEvent",
      "type": "event"
    },
    {
      "constant": false,
      "inputs": [
        {
          "name": "_animalId",
          "type": "uint256"
        }
      ],
      "name": "vote",
      "outputs": [],
      "payable": false,
      "stateMutability": "nonpayable",
      "type": "function"
    }
  ],
  "bytecode": "0x608060405234801561001057600080fd5b5061005e6040805190810160405280600381526020017f446f67000000000000000000000000000000000000000000000000000000000081525061014a640100000000026401000000009004565b6100ab6040805190810160405280600381526020017f436174000000000000000000000000000000000000000000000000000000000081525061014a640100000000026401000000009004565b6100f86040805190810160405280600481526020017f426972640000000000000000000000000000000000000000000000000000000081525061014a640100000000026401000000009004565b6101456040805190810160405280600481526020017f466973680000000000000000000000000000000000000000000000000000000081525061014a640100000000026401000000009004565b61026c565b600260008154809291906001019190505550606060405190810160405280600254815260200182815260200160008152506001600060025481526020019081526020016000206000820151816000015560208201518160010190805190602001906101b69291906101c7565b506040820151816002015590505050565b828054600181600116156101000203166002900490600052602060002090601f016020900481019282601f1061020857805160ff1916838001178555610236565b82800160010185558215610236579182015b8281111561023557825182559160200191906001019061021a565b5b5090506102439190610247565b5090565b61026991905b8082111561026557600081600090555060010161024d565b5090565b90565b6104fc8061027b6000396000f300608060405260043610610062576000357c0100000000000000000000000000000000000000000000000000000000900463ffffffff1680630121b93f14610067578063998dd3ca14610094578063a3ec138d14610148578063c539c443146101a3575b600080fd5b34801561007357600080fd5b50610092600480360381019080803590602001909291905050506101ce565b005b3480156100a057600080fd5b506100bf600480360381019080803590602001909291905050506103e8565b6040518084815260200180602001838152602001828103825284818151815260200191508051906020019080838360005b8381101561010b5780820151818401526020810190506100f0565b50505050905090810190601f1680156101385780820380516001836020036101000a031916815260200191505b5094505050505060405180910390f35b34801561015457600080fd5b50610189600480360381019080803573ffffffffffffffffffffffffffffffffffffffff1690602001909291905050506104aa565b604051808215151515815260200191505060405180910390f35b3480156101af57600080fd5b506101b86104ca565b6040518082815260200191505060405180910390f35b6000803373ffffffffffffffffffffffffffffffffffffffff1673ffffffffffffffffffffffffffffffffffffffff16815260200190815260200160002060009054906101000a900460ff161515156102b5576040517f08c379a00000000000000000000000000000000000000000000000000000000081526004018080602001828103825260268152602001807f596f7527766520616c726561647920766f74656420776974682074686973206181526020017f63636f756e74000000000000000000000000000000000000000000000000000081525060400191505060405180910390fd5b6000811180156102c757506002548111155b151561033b576040517f08c379a00000000000000000000000000000000000000000000000000000000081526004018080602001828103825260208152602001807f596f75206d75737420766f746520666f7220612076616c696420616e696d616c81525060200191505060405180910390fd5b60016000803373ffffffffffffffffffffffffffffffffffffffff1673ffffffffffffffffffffffffffffffffffffffff16815260200190815260200160002060006101000a81548160ff0219169083151502179055506001600082815260200190815260200160002060020160008154809291906001019190505550807ffff3c900d938d21d0990d786e819f29b8d05c1ef587b462b939609625b684b1660405160405180910390a250565b6001602052806000526040600020600091509050806000015490806001018054600181600116156101000203166002900480601f01602080910402602001604051908101604052809291908181526020018280546001816001161561010002031660029004801561049a5780601f1061046f5761010080835404028352916020019161049a565b820191906000526020600020905b81548152906001019060200180831161047d57829003601f168201915b5050505050908060020154905083565b60006020528060005260406000206000915054906101000a900460ff1681565b600254815600a165627a7a72305820082917231aace111d6c4be62d9df19614c955a21b53ecb96f377fabf18586a330029",
  "source": "pragma solidity ^0.4.24;\n\n\n/// @title Animal Poll\n/// @author Becca Kostyo\n/// @notice Simple contract that allows users to vote on their preferred animal from a dropdown list\n\ncontract PetPoll {\n\n    // Model for each animal\n    struct Animal {\n        uint id;\n        string name;\n        uint voteCount;\n    }\n\n    mapping(address => bool) public voters;\n    mapping(uint => Animal) public animals;\n    uint public animalsCount;\n\n    /// @notice Notify when a user has voted on an animal\n    event votedEvent (\n        uint indexed _animalId\n    );\n    \n    /// @notice This will prepoulate some animals to assist with ease of use and testing.\n    constructor () public {\n        _addAnimal(\"Dog\");\n        _addAnimal(\"Cat\");\n        _addAnimal(\"Bird\");\n        _addAnimal(\"Fish\");\n    }\n\n    /// @notice Create a new animal\n    /// @param _name The new animal's name\n    function _addAnimal(string _name) private {\n        animalsCount ++;\n        animals[animalsCount] = Animal(animalsCount, _name, 0);\n    }\n\n    /** @notice Function:\n                1) Validates that user has not already voted \n                2) Validates that animal being voted for is valid\n                3) Record that voter has voted\n                4) Update animal's vote count\n                5) Fire off VotedOnAnimal event\n    **/\n    /// @param _animalId The animal being voted for\n    function vote(uint _animalId) public {\n        require(!voters[msg.sender], \"You've already voted with this account\");\n        require(_animalId > 0 && _animalId <= animalsCount, \"You must vote for a valid animal\");\n        voters[msg.sender] = true;\n        animals[_animalId].voteCount ++;\n        emit votedEvent(_animalId);\n    }\n}\n",
  "sourcePath": "/Users/beccakostyo/Desktop/consensys/consensys-project/contracts/PetPoll.sol",
  "compiler": {
    "name": "solc",
    "version": "0.4.24+commit.e67f0147.Emscripten.clang"
  },
  "schemaVersion": "2.0.1",
  "updatedAt": "2018-08-24T04:48:51.283Z"
}