{
  "contractName": "PetPoll",
  "abi": [
    {
      "constant": false,
      "inputs": [],
      "name": "renounceOwnership",
      "outputs": [],
      "payable": false,
      "stateMutability": "nonpayable",
      "type": "function"
    },
    {
      "constant": true,
      "inputs": [],
      "name": "stopped",
      "outputs": [
        {
          "name": "",
          "type": "bool"
        }
      ],
      "payable": false,
      "stateMutability": "view",
      "type": "function"
    },
    {
      "constant": true,
      "inputs": [],
      "name": "owner",
      "outputs": [
        {
          "name": "",
          "type": "address"
        }
      ],
      "payable": false,
      "stateMutability": "view",
      "type": "function"
    },
    {
      "constant": true,
      "inputs": [
        {
          "name": "",
          "type": "uint256"
        }
      ],
      "name": "animals",
      "outputs": [
        {
          "name": "id",
          "type": "uint256"
        },
        {
          "name": "name",
          "type": "string"
        },
        {
          "name": "voteCount",
          "type": "uint256"
        }
      ],
      "payable": false,
      "stateMutability": "view",
      "type": "function"
    },
    {
      "constant": true,
      "inputs": [
        {
          "name": "",
          "type": "address"
        }
      ],
      "name": "voters",
      "outputs": [
        {
          "name": "",
          "type": "bool"
        }
      ],
      "payable": false,
      "stateMutability": "view",
      "type": "function"
    },
    {
      "constant": true,
      "inputs": [],
      "name": "animalsCount",
      "outputs": [
        {
          "name": "",
          "type": "uint256"
        }
      ],
      "payable": false,
      "stateMutability": "view",
      "type": "function"
    },
    {
      "constant": false,
      "inputs": [
        {
          "name": "_newOwner",
          "type": "address"
        }
      ],
      "name": "transferOwnership",
      "outputs": [],
      "payable": false,
      "stateMutability": "nonpayable",
      "type": "function"
    },
    {
      "inputs": [],
      "payable": false,
      "stateMutability": "nonpayable",
      "type": "constructor"
    },
    {
      "anonymous": false,
      "inputs": [
        {
          "indexed": true,
          "name": "_animalId",
          "type": "uint256"
        }
      ],
      "name": "votedEvent",
      "type": "event"
    },
    {
      "anonymous": false,
      "inputs": [
        {
          "indexed": true,
          "name": "previousOwner",
          "type": "address"
        }
      ],
      "name": "OwnershipRenounced",
      "type": "event"
    },
    {
      "anonymous": false,
      "inputs": [
        {
          "indexed": true,
          "name": "previousOwner",
          "type": "address"
        },
        {
          "indexed": true,
          "name": "newOwner",
          "type": "address"
        }
      ],
      "name": "OwnershipTransferred",
      "type": "event"
    },
    {
      "constant": false,
      "inputs": [
        {
          "name": "_animalId",
          "type": "uint256"
        }
      ],
      "name": "vote",
      "outputs": [],
      "payable": false,
      "stateMutability": "nonpayable",
      "type": "function"
    },
    {
      "constant": false,
      "inputs": [
        {
          "name": "_stopped",
          "type": "bool"
        }
      ],
      "name": "circuitBreaker",
      "outputs": [],
      "payable": false,
      "stateMutability": "nonpayable",
      "type": "function"
    }
  ],
  "bytecode": "0x608060405234801561001057600080fd5b50336000806101000a81548173ffffffffffffffffffffffffffffffffffffffff021916908373ffffffffffffffffffffffffffffffffffffffff16021790555061009e6040805190810160405280600381526020017f446f6700000000000000000000000000000000000000000000000000000000008152506101a5640100000000026401000000009004565b6100eb6040805190810160405280600381526020017f43617400000000000000000000000000000000000000000000000000000000008152506101a5640100000000026401000000009004565b6101386040805190810160405280600481526020017f42697264000000000000000000000000000000000000000000000000000000008152506101a5640100000000026401000000009004565b6101856040805190810160405280600481526020017f46697368000000000000000000000000000000000000000000000000000000008152506101a5640100000000026401000000009004565b6000600460006101000a81548160ff021916908315150217905550610322565b6000809054906101000a900473ffffffffffffffffffffffffffffffffffffffff1673ffffffffffffffffffffffffffffffffffffffff163373ffffffffffffffffffffffffffffffffffffffff1614151561020057600080fd5b6003600081548092919060010191905055506060604051908101604052806003548152602001828152602001600081525060026000600354815260200190815260200160002060008201518160000155602082015181600101908051906020019061026c92919061027d565b506040820151816002015590505050565b828054600181600116156101000203166002900490600052602060002090601f016020900481019282601f106102be57805160ff19168380011785556102ec565b828001600101855582156102ec579182015b828111156102eb5782518255916020019190600101906102d0565b5b5090506102f991906102fd565b5090565b61031f91905b8082111561031b576000816000905550600101610303565b5090565b90565b610956806103316000396000f300608060405260043610610099576000357c0100000000000000000000000000000000000000000000000000000000900463ffffffff1680630121b93f1461009e578063715018a6146100cb57806375f12b21146100e257806380fe39c8146101115780638da5cb5b14610140578063998dd3ca14610197578063a3ec138d1461024b578063c539c443146102a6578063f2fde38b146102d1575b600080fd5b3480156100aa57600080fd5b506100c960048036038101908080359060200190929190505050610314565b005b3480156100d757600080fd5b506100e061052f565b005b3480156100ee57600080fd5b506100f7610631565b604051808215151515815260200191505060405180910390f35b34801561011d57600080fd5b5061013e600480360381019080803515159060200190929190505050610644565b005b34801561014c57600080fd5b506101556106bc565b604051808273ffffffffffffffffffffffffffffffffffffffff1673ffffffffffffffffffffffffffffffffffffffff16815260200191505060405180910390f35b3480156101a357600080fd5b506101c2600480360381019080803590602001909291905050506106e1565b6040518084815260200180602001838152602001828103825284818151815260200191508051906020019080838360005b8381101561020e5780820151818401526020810190506101f3565b50505050905090810190601f16801561023b5780820380516001836020036101000a031916815260200191505b5094505050505060405180910390f35b34801561025757600080fd5b5061028c600480360381019080803573ffffffffffffffffffffffffffffffffffffffff1690602001909291905050506107a3565b604051808215151515815260200191505060405180910390f35b3480156102b257600080fd5b506102bb6107c3565b6040518082815260200191505060405180910390f35b3480156102dd57600080fd5b50610312600480360381019080803573ffffffffffffffffffffffffffffffffffffffff1690602001909291905050506107c9565b005b600160003373ffffffffffffffffffffffffffffffffffffffff1673ffffffffffffffffffffffffffffffffffffffff16815260200190815260200160002060009054906101000a900460ff161515156103fc576040517f08c379a00000000000000000000000000000000000000000000000000000000081526004018080602001828103825260268152602001807f596f7527766520616c726561647920766f74656420776974682074686973206181526020017f63636f756e74000000000000000000000000000000000000000000000000000081525060400191505060405180910390fd5b60008111801561040e57506003548111155b1515610482576040517f08c379a00000000000000000000000000000000000000000000000000000000081526004018080602001828103825260208152602001807f596f75206d75737420766f746520666f7220612076616c696420616e696d616c81525060200191505060405180910390fd5b60018060003373ffffffffffffffffffffffffffffffffffffffff1673ffffffffffffffffffffffffffffffffffffffff16815260200190815260200160002060006101000a81548160ff0219169083151502179055506002600082815260200190815260200160002060020160008154809291906001019190505550807ffff3c900d938d21d0990d786e819f29b8d05c1ef587b462b939609625b684b1660405160405180910390a250565b6000809054906101000a900473ffffffffffffffffffffffffffffffffffffffff1673ffffffffffffffffffffffffffffffffffffffff163373ffffffffffffffffffffffffffffffffffffffff1614151561058a57600080fd5b6000809054906101000a900473ffffffffffffffffffffffffffffffffffffffff1673ffffffffffffffffffffffffffffffffffffffff167ff8df31144d9c2f0f6b59d69b8b98abd5459d07f2742c4df920b25aae33c6482060405160405180910390a260008060006101000a81548173ffffffffffffffffffffffffffffffffffffffff021916908373ffffffffffffffffffffffffffffffffffffffff160217905550565b600460009054906101000a900460ff1681565b6000809054906101000a900473ffffffffffffffffffffffffffffffffffffffff1673ffffffffffffffffffffffffffffffffffffffff163373ffffffffffffffffffffffffffffffffffffffff1614151561069f57600080fd5b80600460006101000a81548160ff02191690831515021790555050565b6000809054906101000a900473ffffffffffffffffffffffffffffffffffffffff1681565b6002602052806000526040600020600091509050806000015490806001018054600181600116156101000203166002900480601f0160208091040260200160405190810160405280929190818152602001828054600181600116156101000203166002900480156107935780601f1061076857610100808354040283529160200191610793565b820191906000526020600020905b81548152906001019060200180831161077657829003601f168201915b5050505050908060020154905083565b60016020528060005260406000206000915054906101000a900460ff1681565b60035481565b6000809054906101000a900473ffffffffffffffffffffffffffffffffffffffff1673ffffffffffffffffffffffffffffffffffffffff163373ffffffffffffffffffffffffffffffffffffffff1614151561082457600080fd5b61082d81610830565b50565b600073ffffffffffffffffffffffffffffffffffffffff168173ffffffffffffffffffffffffffffffffffffffff161415151561086c57600080fd5b8073ffffffffffffffffffffffffffffffffffffffff166000809054906101000a900473ffffffffffffffffffffffffffffffffffffffff1673ffffffffffffffffffffffffffffffffffffffff167f8be0079c531659141344cd1fd0a4f28419497f9722a3daafe3b4186f6b6457e060405160405180910390a3806000806101000a81548173ffffffffffffffffffffffffffffffffffffffff021916908373ffffffffffffffffffffffffffffffffffffffff160217905550505600a165627a7a7230582057f241c2cb7b37ecdf58de4828bbe7266220589f9c3dbe15e2ea9072d80dc4240029",
  "source": "pragma solidity ^0.4.24;\nimport \"openzeppelin-solidity/contracts/ownership/Ownable.sol\";\n\n/// @title Animal Poll\n/// @author Becca Kostyo\n/// @notice Simple contract that allows users to vote on their preferred animal from a dropdown list\n\ncontract PetPoll is Ownable {\n\n    // Model for each animal\n    struct Animal {\n        uint id;\n        string name;\n        uint voteCount;\n    }\n\n    mapping(address => bool) public voters;\n    mapping(uint => Animal) public animals;\n    uint public animalsCount;\n    bool public stopped;\n    address owner;\n\n\n    /// @notice Notify when a user has voted on an animal\n    event votedEvent (\n        uint indexed _animalId\n    );\n    \n    /// @notice This will prepoulate some animals to assist with ease of use and testing.\n    constructor () public {\n        _addAnimal(\"Dog\");\n        _addAnimal(\"Cat\");\n        _addAnimal(\"Bird\");\n        _addAnimal(\"Fish\");\n        stopped = false;\n    }\n\n    /// @notice Create a new animal\n    /// @param _name The new animal's name\n    function _addAnimal(string _name) private onlyOwner() {\n        animalsCount ++;\n        animals[animalsCount] = Animal(animalsCount, _name, 0);\n    }\n\n    /** @notice Function:\n                1) Validates that user has not already voted \n                2) Validates that animal being voted for is valid\n                3) Record that voter has voted\n                4) Update animal's vote count\n                5) Fire off VotedOnAnimal event\n    **/\n    /// @param _animalId The animal being voted for\n    function vote(uint _animalId) public {\n        require(!voters[msg.sender], \"You've already voted with this account\");\n        require(_animalId > 0 && _animalId <= animalsCount, \"You must vote for a valid animal\");\n        voters[msg.sender] = true;\n        animals[_animalId].voteCount ++;\n        emit votedEvent(_animalId);\n    }\n\n    /// @dev Self Destruct Contract\n    function kill() private onlyOwner() {\n        selfdestruct(owner);\n    }\n\n    /// @notice Admin function to stop certain functions in an emergency\n    /// @dev Circuit breaker that allows contract functionality to be stopped\n    function circuitBreaker(bool _stopped) external onlyOwner() {\n        stopped = _stopped;\n    }\n\n}\n",
  "sourcePath": "/Users/beccakostyo/Desktop/consensys/consensys-project/contracts/PetPoll.sol",
  "compiler": {
    "name": "solc",
    "version": "0.4.24+commit.e67f0147.Emscripten.clang"
  },
  "schemaVersion": "2.0.1",
  "updatedAt": "2018-08-24T06:35:28.272Z"
}