{
  "contractName": "PetPoll",
  "abi": [
    {
      "constant": true,
      "inputs": [
        {
          "name": "",
          "type": "uint256"
        }
      ],
      "name": "animals",
      "outputs": [
        {
          "name": "id",
          "type": "uint256"
        },
        {
          "name": "voteCount",
          "type": "uint256"
        },
        {
          "name": "name",
          "type": "string"
        }
      ],
      "payable": false,
      "stateMutability": "view",
      "type": "function"
    },
    {
      "constant": true,
      "inputs": [
        {
          "name": "",
          "type": "address"
        }
      ],
      "name": "voters",
      "outputs": [
        {
          "name": "",
          "type": "bool"
        }
      ],
      "payable": false,
      "stateMutability": "view",
      "type": "function"
    },
    {
      "constant": true,
      "inputs": [],
      "name": "animalsCount",
      "outputs": [
        {
          "name": "",
          "type": "uint256"
        }
      ],
      "payable": false,
      "stateMutability": "view",
      "type": "function"
    },
    {
      "inputs": [],
      "payable": false,
      "stateMutability": "nonpayable",
      "type": "constructor"
    },
    {
      "anonymous": false,
      "inputs": [
        {
          "indexed": false,
          "name": "_animalId",
          "type": "uint256"
        }
      ],
      "name": "VotedOnAnimal",
      "type": "event"
    },
    {
      "constant": false,
      "inputs": [
        {
          "name": "_animalId",
          "type": "uint256"
        }
      ],
      "name": "vote",
      "outputs": [],
      "payable": false,
      "stateMutability": "nonpayable",
      "type": "function"
    }
  ],
  "bytecode": "0x608060405234801561001057600080fd5b5061005e6040805190810160405280600381526020017f446f6700000000000000000000000000000000000000000000000000000000008152506100b0640100000000026401000000009004565b6100ab6040805190810160405280600381526020017f43617400000000000000000000000000000000000000000000000000000000008152506100b0640100000000026401000000009004565b6101d0565b60008081548092919060010191905055506060604051908101604052806000548152602001600081526020018281525060026000805481526020019081526020016000206000820151816000015560208201518160010155604082015181600201908051906020019061012492919061012b565b5090505050565b828054600181600116156101000203166002900490600052602060002090601f016020900481019282601f1061016c57805160ff191683800117855561019a565b8280016001018555821561019a579182015b8281111561019957825182559160200191906001019061017e565b5b5090506101a791906101ab565b5090565b6101cd91905b808211156101c95760008160009055506001016101b1565b5090565b90565b61052d806101df6000396000f300608060405260043610610062576000357c0100000000000000000000000000000000000000000000000000000000900463ffffffff1680630121b93f14610067578063998dd3ca14610094578063a3ec138d14610148578063c539c443146101a3575b600080fd5b34801561007357600080fd5b50610092600480360381019080803590602001909291905050506101ce565b005b3480156100a057600080fd5b506100bf60048036038101908080359060200190929190505050610419565b6040518084815260200183815260200180602001828103825283818151815260200191508051906020019080838360005b8381101561010b5780820151818401526020810190506100f0565b50505050905090810190601f1680156101385780820380516001836020036101000a031916815260200191505b5094505050505060405180910390f35b34801561015457600080fd5b50610189600480360381019080803573ffffffffffffffffffffffffffffffffffffffff1690602001909291905050506104db565b604051808215151515815260200191505060405180910390f35b3480156101af57600080fd5b506101b86104fb565b6040518082815260200191505060405180910390f35b600160003373ffffffffffffffffffffffffffffffffffffffff1673ffffffffffffffffffffffffffffffffffffffff16815260200190815260200160002060009054906101000a900460ff161515156102b6576040517f08c379a00000000000000000000000000000000000000000000000000000000081526004018080602001828103825260238152602001807f596f7527766520616c726561647920766f74656420666f7220616e20616e696d81526020017f616c2e000000000000000000000000000000000000000000000000000000000081525060400191505060405180910390fd5b6000811180156102c857506000548111155b1515610362576040517f08c379a00000000000000000000000000000000000000000000000000000000081526004018080602001828103825260218152602001807f596f75206d75737420766f746520666f7220612076616c696420616e696d616c81526020017f2e0000000000000000000000000000000000000000000000000000000000000081525060400191505060405180910390fd5b60018060003373ffffffffffffffffffffffffffffffffffffffff1673ffffffffffffffffffffffffffffffffffffffff16815260200190815260200160002060006101000a81548160ff02191690831515021790555060026000828152602001908152602001600020600101600081548092919060010191905055507fe683e79ac7c18d8cd1510a5410035d5eeaee6f1adea31aa289f2e6a32abf81f0816040518082815260200191505060405180910390a150565b6002602052806000526040600020600091509050806000015490806001015490806002018054600181600116156101000203166002900480601f0160208091040260200160405190810160405280929190818152602001828054600181600116156101000203166002900480156104d15780601f106104a6576101008083540402835291602001916104d1565b820191906000526020600020905b8154815290600101906020018083116104b457829003601f168201915b5050505050905083565b60016020528060005260406000206000915054906101000a900460ff1681565b600054815600a165627a7a72305820b80172763aa8212e10b494997427a28f1eaf4eabd7d01c225d34d324df6d61aa0029",
  "source": "pragma solidity ^0.4.24;\n\n/// @title Animal Poll\n/// @author Becca Kostyo\n/// @notice Simple contract that allows users to vote on their preferred animal from a dropdown list\ncontract PetPoll {\n\n    uint public animalsCount;\n    mapping(address => bool) public voters;\n    mapping(uint => Animal) public animals;\n    \n    // Model for each animal\n    struct Animal {\n        uint id;\n        uint voteCount;\n        string name;\n    }\n\n    /// @notice This will prepoulate some animals to assist with ease of use and testing.\n    constructor () public {\n        _addAnimal(\"Dog\");\n        _addAnimal(\"Cat\");\n    }\n\n    /// @notice Notify when a user has voted on an animal\n    event VotedOnAnimal(uint _animalId);\n    \n    /// @notice Create a new animal\n    /// @param _name The new animal's name\n    function _addAnimal(string _name) private {\n        animalsCount++;\n        animals[animalsCount] = Animal(animalsCount, 0, _name);\n    }\n\n    /** @notice Function:\n                1) Validates that user has not already voted \n                2) Validates that animal being voted for is valid\n                3) Record that voter has voted\n                4) Update animal's vote count\n                5) Fire off VotedOnAnimal event\n    **/\n    /// @param _animalId The animal being voted for\n    function vote(uint _animalId) public {\n        require(!voters[msg.sender], \"You've already voted for an animal.\");\n        require(_animalId > 0 && _animalId <= animalsCount, \"You must vote for a valid animal.\");\n\n        voters[msg.sender] = true;\n        animals[_animalId].voteCount++;\n        emit VotedOnAnimal(_animalId);\n    }\n}",
  "sourcePath": "/Users/beccakostyo/Desktop/consensys/consensys-project/contracts/PetPoll.sol",
  "compiler": {
    "name": "solc",
    "version": "0.4.24+commit.e67f0147.Emscripten.clang"
  },
  "schemaVersion": "2.0.1",
  "updatedAt": "2018-08-22T06:09:37.799Z"
}